{
  "contractName": "Election",
  "abi": [
    {
      "constant": true,
      "inputs": [],
      "name": "totalVotes",
      "outputs": [
        {
          "name": "",
          "type": "uint256"
        }
      ],
      "payable": false,
      "stateMutability": "view",
      "type": "function"
    },
    {
      "constant": true,
      "inputs": [],
      "name": "candidatesCount",
      "outputs": [
        {
          "name": "",
          "type": "uint256"
        }
      ],
      "payable": false,
      "stateMutability": "view",
      "type": "function"
    },
    {
      "constant": true,
      "inputs": [
        {
          "name": "",
          "type": "uint256"
        }
      ],
      "name": "candidates",
      "outputs": [
        {
          "name": "candidateName",
          "type": "string"
        },
        {
          "name": "voteCount",
          "type": "uint256"
        }
      ],
      "payable": false,
      "stateMutability": "view",
      "type": "function"
    },
    {
      "constant": true,
      "inputs": [],
      "name": "electionName",
      "outputs": [
        {
          "name": "",
          "type": "string"
        }
      ],
      "payable": false,
      "stateMutability": "view",
      "type": "function"
    },
    {
      "constant": true,
      "inputs": [],
      "name": "owner",
      "outputs": [
        {
          "name": "",
          "type": "address"
        }
      ],
      "payable": false,
      "stateMutability": "view",
      "type": "function"
    },
    {
      "constant": true,
      "inputs": [
        {
          "name": "",
          "type": "address"
        }
      ],
      "name": "voters",
      "outputs": [
        {
          "name": "authorized",
          "type": "bool"
        },
        {
          "name": "voted",
          "type": "bool"
        },
        {
          "name": "vote",
          "type": "uint256"
        }
      ],
      "payable": false,
      "stateMutability": "view",
      "type": "function"
    },
    {
      "inputs": [
        {
          "name": "_name",
          "type": "string"
        }
      ],
      "payable": false,
      "stateMutability": "nonpayable",
      "type": "constructor"
    },
    {
      "constant": false,
      "inputs": [
        {
          "name": "_name",
          "type": "string"
        }
      ],
      "name": "addCandidate",
      "outputs": [],
      "payable": false,
      "stateMutability": "nonpayable",
      "type": "function"
    },
    {
      "constant": false,
      "inputs": [
        {
          "name": "_user",
          "type": "address"
        }
      ],
      "name": "authorize",
      "outputs": [],
      "payable": false,
      "stateMutability": "nonpayable",
      "type": "function"
    },
    {
      "constant": false,
      "inputs": [
        {
          "name": "_candidateID",
          "type": "uint256"
        }
      ],
      "name": "vote",
      "outputs": [],
      "payable": false,
      "stateMutability": "nonpayable",
      "type": "function"
    },
    {
      "constant": false,
      "inputs": [],
      "name": "end",
      "outputs": [],
      "payable": false,
      "stateMutability": "nonpayable",
      "type": "function"
    }
  ],
  "bytecode": "0x608060405234801561001057600080fd5b50604051610bac380380610bac83398101806040528101908080518201929190505050336000806101000a81548173ffffffffffffffffffffffffffffffffffffffff021916908373ffffffffffffffffffffffffffffffffffffffff1602179055508060019080519060200190610089929190610090565b5050610135565b828054600181600116156101000203166002900490600052602060002090601f016020900481019282601f106100d157805160ff19168380011785556100ff565b828001600101855582156100ff579182015b828111156100fe5782518255916020019190600101906100e3565b5b50905061010c9190610110565b5090565b61013291905b8082111561012e576000816000905550600101610116565b5090565b90565b610a68806101446000396000f3006080604052600436106100a4576000357c0100000000000000000000000000000000000000000000000000000000900463ffffffff1680630121b93f146100a95780630d15fd77146100d65780632d35a8a2146101015780633477ee2e1461012c578063462e91ec146101d957806385e8e7a7146102425780638da5cb5b146102d2578063a3ec138d14610329578063b6a5d7de14610396578063efbe1c1c146103d9575b600080fd5b3480156100b557600080fd5b506100d4600480360381019080803590602001909291905050506103f0565b005b3480156100e257600080fd5b506100eb61058e565b6040518082815260200191505060405180910390f35b34801561010d57600080fd5b50610116610594565b6040518082815260200191505060405180910390f35b34801561013857600080fd5b506101576004803603810190808035906020019092919050505061059a565b6040518080602001838152602001828103825284818151815260200191508051906020019080838360005b8381101561019d578082015181840152602081019050610182565b50505050905090810190601f1680156101ca5780820380516001836020036101000a031916815260200191505b50935050505060405180910390f35b3480156101e557600080fd5b50610240600480360381019080803590602001908201803590602001908080601f0160208091040260200160405190810160405280939291908181526020018383808284378201915050505050509192919290505050610665565b005b34801561024e57600080fd5b50610257610742565b6040518080602001828103825283818151815260200191508051906020019080838360005b8381101561029757808201518184015260208101905061027c565b50505050905090810190601f1680156102c45780820380516001836020036101000a031916815260200191505b509250505060405180910390f35b3480156102de57600080fd5b506102e76107e0565b604051808273ffffffffffffffffffffffffffffffffffffffff1673ffffffffffffffffffffffffffffffffffffffff16815260200191505060405180910390f35b34801561033557600080fd5b5061036a600480360381019080803573ffffffffffffffffffffffffffffffffffffffff169060200190929190505050610805565b604051808415151515815260200183151515158152602001828152602001935050505060405180910390f35b3480156103a257600080fd5b506103d7600480360381019080803573ffffffffffffffffffffffffffffffffffffffff169060200190929190505050610849565b005b3480156103e557600080fd5b506103ee610902565b005b600260003373ffffffffffffffffffffffffffffffffffffffff1673ffffffffffffffffffffffffffffffffffffffff16815260200190815260200160002060000160019054906101000a900460ff1615151561044c57600080fd5b600260003373ffffffffffffffffffffffffffffffffffffffff1673ffffffffffffffffffffffffffffffffffffffff16815260200190815260200160002060000160009054906101000a900460ff1615156104a757600080fd5b80600260003373ffffffffffffffffffffffffffffffffffffffff1673ffffffffffffffffffffffffffffffffffffffff168152602001908152602001600020600101819055506001600260003373ffffffffffffffffffffffffffffffffffffffff1673ffffffffffffffffffffffffffffffffffffffff16815260200190815260200160002060000160016101000a81548160ff02191690831515021790555060038181548110151561055857fe5b90600052602060002090600202016001016000815480929190600101919050555060046000815480929190600101919050555050565b60045481565b60055481565b6003818154811015156105a957fe5b9060005260206000209060020201600091509050806000018054600181600116156101000203166002900480601f0160208091040260200160405190810160405280929190818152602001828054600181600116156101000203166002900480156106555780601f1061062a57610100808354040283529160200191610655565b820191906000526020600020905b81548152906001019060200180831161063857829003601f168201915b5050505050908060010154905082565b6000809054906101000a900473ffffffffffffffffffffffffffffffffffffffff1673ffffffffffffffffffffffffffffffffffffffff163373ffffffffffffffffffffffffffffffffffffffff161415156106c057600080fd5b600560008154809291906001019190505550600360408051908101604052808381526020016000815250908060018154018082558091505090600182039060005260206000209060020201600090919290919091506000820151816000019080519060200190610731929190610997565b506020820151816001015550505050565b60018054600181600116156101000203166002900480601f0160208091040260200160405190810160405280929190818152602001828054600181600116156101000203166002900480156107d85780601f106107ad576101008083540402835291602001916107d8565b820191906000526020600020905b8154815290600101906020018083116107bb57829003601f168201915b505050505081565b6000809054906101000a900473ffffffffffffffffffffffffffffffffffffffff1681565b60026020528060005260406000206000915090508060000160009054906101000a900460ff16908060000160019054906101000a900460ff16908060010154905083565b6000809054906101000a900473ffffffffffffffffffffffffffffffffffffffff1673ffffffffffffffffffffffffffffffffffffffff163373ffffffffffffffffffffffffffffffffffffffff161415156108a457600080fd5b6001600260008373ffffffffffffffffffffffffffffffffffffffff1673ffffffffffffffffffffffffffffffffffffffff16815260200190815260200160002060000160006101000a81548160ff02191690831515021790555050565b6000809054906101000a900473ffffffffffffffffffffffffffffffffffffffff1673ffffffffffffffffffffffffffffffffffffffff163373ffffffffffffffffffffffffffffffffffffffff1614151561095d57600080fd5b6000809054906101000a900473ffffffffffffffffffffffffffffffffffffffff1673ffffffffffffffffffffffffffffffffffffffff16ff5b828054600181600116156101000203166002900490600052602060002090601f016020900481019282601f106109d857805160ff1916838001178555610a06565b82800160010185558215610a06579182015b82811115610a055782518255916020019190600101906109ea565b5b509050610a139190610a17565b5090565b610a3991905b80821115610a35576000816000905550600101610a1d565b5090565b905600a165627a7a72305820cbbb278046be7e33d66703b5b02962384a5eec1ace1ace5d3a45f45dd21cbad30029",
  "source": "pragma solidity ^0.4.21;\r\ncontract Election {\r\n\r\n    struct Candidate {\r\n        string candidateName;\r\n        uint voteCount;\r\n\r\n    }\r\n\r\n    struct Voter {\r\n        bool authorized;                                //check if voter/user is authorized\r\n        bool voted;                                     //check if voter/user has voted\r\n        uint vote;                                      //checks who voters voted for\r\n    }\r\n\r\n    address public owner;                               //owner of the contract\r\n    string public electionName;             \r\n\r\n    mapping(address => Voter) public voters;            //keeps track of voters\r\n    //mapping(uint => Candidate) public candidates;       //stores/keeps track candidates\r\n    Candidate[] public candidates;                      //array of candidates to be voted for\r\n    uint public totalVotes;                             //Stores total votes\r\n    uint public candidatesCount;                        //Stores candidates count\r\n\r\n    modifier ownerOnly() {                              //modifier to allow owner only functionalities (used in functions)\r\n        require(msg.sender == owner);\r\n        _;                                              //executes everything in the function if requirement (is owner) is met;         \r\n    }\r\n\r\n    //smart contract constructor\r\n    constructor(string _name) public {\r\n        owner = msg.sender;                             //the (address) owner of the contract (whoever deployed the contract) also owns the Election\r\n        electionName = _name;\r\n    }\r\n    \r\n    //add candidate function\r\n    function addCandidate(string _name) ownerOnly public {\r\n        candidatesCount ++;\r\n        candidates.push(Candidate(_name, 0));\r\n    }\r\n\r\n    function authorize(address _user) ownerOnly public {\r\n        voters[_user].authorized = true;\r\n    }\r\n\r\n    function vote(uint _candidateID) public {\r\n        require(!voters[msg.sender].voted);             // requires user to have not voted yet\r\n        require(voters[msg.sender].authorized);\r\n\r\n        voters[msg.sender].vote = _candidateID;\r\n        voters[msg.sender].voted = true;                 //marks the voter as already having voted\r\n\r\n        candidates[_candidateID].voteCount ++;\r\n        totalVotes ++;\r\n    }\r\n\r\n    function end() ownerOnly public{\r\n        selfdestruct(owner);\r\n    }\r\n}",
  "sourcePath": "C:\\Users\\rentu\\Documents\\Github\\BlockLocale\\contracts\\BlockVote.sol",
  "compiler": {
    "name": "solc",
    "version": "0.4.26+commit.4563c3fc.Emscripten.clang"
  },
  "schemaVersion": "3.4.7",
  "updatedAt": "2022-05-09T09:01:19.773Z",
  "devdoc": {
    "methods": {}
  },
  "userdoc": {
    "methods": {}
  }
}