{
  "contractName": "Election",
  "abi": [
    {
      "constant": true,
      "inputs": [],
      "name": "totalVotes",
      "outputs": [
        {
          "name": "",
          "type": "uint256"
        }
      ],
      "payable": false,
      "stateMutability": "view",
      "type": "function"
    },
    {
      "constant": true,
      "inputs": [],
      "name": "candidatesCount",
      "outputs": [
        {
          "name": "",
          "type": "uint256"
        }
      ],
      "payable": false,
      "stateMutability": "view",
      "type": "function"
    },
    {
      "constant": true,
      "inputs": [
        {
          "name": "",
          "type": "uint256"
        }
      ],
      "name": "candidates",
      "outputs": [
        {
          "name": "candidateName",
          "type": "string"
        },
        {
          "name": "voteCount",
          "type": "uint256"
        }
      ],
      "payable": false,
      "stateMutability": "view",
      "type": "function"
    },
    {
      "constant": true,
      "inputs": [],
      "name": "candidate",
      "outputs": [
        {
          "name": "",
          "type": "string"
        }
      ],
      "payable": false,
      "stateMutability": "view",
      "type": "function"
    },
    {
      "constant": true,
      "inputs": [],
      "name": "electionName",
      "outputs": [
        {
          "name": "",
          "type": "string"
        }
      ],
      "payable": false,
      "stateMutability": "view",
      "type": "function"
    },
    {
      "constant": true,
      "inputs": [],
      "name": "owner",
      "outputs": [
        {
          "name": "",
          "type": "address"
        }
      ],
      "payable": false,
      "stateMutability": "view",
      "type": "function"
    },
    {
      "constant": true,
      "inputs": [
        {
          "name": "",
          "type": "address"
        }
      ],
      "name": "voters",
      "outputs": [
        {
          "name": "authorized",
          "type": "bool"
        },
        {
          "name": "voted",
          "type": "bool"
        },
        {
          "name": "vote",
          "type": "uint256"
        }
      ],
      "payable": false,
      "stateMutability": "view",
      "type": "function"
    },
    {
      "inputs": [],
      "payable": false,
      "stateMutability": "nonpayable",
      "type": "constructor"
    },
    {
      "constant": false,
      "inputs": [
        {
          "name": "_name",
          "type": "string"
        }
      ],
      "name": "addCandidate",
      "outputs": [],
      "payable": false,
      "stateMutability": "nonpayable",
      "type": "function"
    },
    {
      "constant": false,
      "inputs": [
        {
          "name": "_user",
          "type": "address"
        }
      ],
      "name": "authorize",
      "outputs": [],
      "payable": false,
      "stateMutability": "nonpayable",
      "type": "function"
    },
    {
      "constant": false,
      "inputs": [
        {
          "name": "_candidateID",
          "type": "uint256"
        }
      ],
      "name": "vote",
      "outputs": [],
      "payable": false,
      "stateMutability": "nonpayable",
      "type": "function"
    },
    {
      "constant": false,
      "inputs": [],
      "name": "end",
      "outputs": [],
      "payable": false,
      "stateMutability": "nonpayable",
      "type": "function"
    }
  ],
  "bytecode": "0x608060405234801561001057600080fd5b506040805190810160405280600b81526020017f43616e64696461746520310000000000000000000000000000000000000000008152506006908051906020019061005c929190610062565b50610107565b828054600181600116156101000203166002900490600052602060002090601f016020900481019282601f106100a357805160ff19168380011785556100d1565b828001600101855582156100d1579182015b828111156100d05782518255916020019190600101906100b5565b5b5090506100de91906100e2565b5090565b61010491905b808211156101005760008160009055506001016100e8565b5090565b90565b610ba1806101166000396000f3006080604052600436106100af576000357c0100000000000000000000000000000000000000000000000000000000900463ffffffff1680630121b93f146100b45780630d15fd77146100e15780632d35a8a21461010c5780633477ee2e14610137578063462e91ec146101e45780636c8381f81461024d57806385e8e7a7146102dd5780638da5cb5b1461036d578063a3ec138d146103c4578063b6a5d7de14610431578063efbe1c1c14610474575b600080fd5b3480156100c057600080fd5b506100df6004803603810190808035906020019092919050505061048b565b005b3480156100ed57600080fd5b506100f6610629565b6040518082815260200191505060405180910390f35b34801561011857600080fd5b5061012161062f565b6040518082815260200191505060405180910390f35b34801561014357600080fd5b5061016260048036038101908080359060200190929190505050610635565b6040518080602001838152602001828103825284818151815260200191508051906020019080838360005b838110156101a857808201518184015260208101905061018d565b50505050905090810190601f1680156101d55780820380516001836020036101000a031916815260200191505b50935050505060405180910390f35b3480156101f057600080fd5b5061024b600480360381019080803590602001908201803590602001908080601f0160208091040260200160405190810160405280939291908181526020018383808284378201915050505050509192919290505050610700565b005b34801561025957600080fd5b506102626107dd565b6040518080602001828103825283818151815260200191508051906020019080838360005b838110156102a2578082015181840152602081019050610287565b50505050905090810190601f1680156102cf5780820380516001836020036101000a031916815260200191505b509250505060405180910390f35b3480156102e957600080fd5b506102f261087b565b6040518080602001828103825283818151815260200191508051906020019080838360005b83811015610332578082015181840152602081019050610317565b50505050905090810190601f16801561035f5780820380516001836020036101000a031916815260200191505b509250505060405180910390f35b34801561037957600080fd5b50610382610919565b604051808273ffffffffffffffffffffffffffffffffffffffff1673ffffffffffffffffffffffffffffffffffffffff16815260200191505060405180910390f35b3480156103d057600080fd5b50610405600480360381019080803573ffffffffffffffffffffffffffffffffffffffff16906020019092919050505061093e565b604051808415151515815260200183151515158152602001828152602001935050505060405180910390f35b34801561043d57600080fd5b50610472600480360381019080803573ffffffffffffffffffffffffffffffffffffffff169060200190929190505050610982565b005b34801561048057600080fd5b50610489610a3b565b005b600260003373ffffffffffffffffffffffffffffffffffffffff1673ffffffffffffffffffffffffffffffffffffffff16815260200190815260200160002060000160019054906101000a900460ff161515156104e757600080fd5b600260003373ffffffffffffffffffffffffffffffffffffffff1673ffffffffffffffffffffffffffffffffffffffff16815260200190815260200160002060000160009054906101000a900460ff16151561054257600080fd5b80600260003373ffffffffffffffffffffffffffffffffffffffff1673ffffffffffffffffffffffffffffffffffffffff168152602001908152602001600020600101819055506001600260003373ffffffffffffffffffffffffffffffffffffffff1673ffffffffffffffffffffffffffffffffffffffff16815260200190815260200160002060000160016101000a81548160ff0219169083151502179055506003818154811015156105f357fe5b90600052602060002090600202016001016000815480929190600101919050555060046000815480929190600101919050555050565b60045481565b60055481565b60038181548110151561064457fe5b9060005260206000209060020201600091509050806000018054600181600116156101000203166002900480601f0160208091040260200160405190810160405280929190818152602001828054600181600116156101000203166002900480156106f05780601f106106c5576101008083540402835291602001916106f0565b820191906000526020600020905b8154815290600101906020018083116106d357829003601f168201915b5050505050908060010154905082565b6000809054906101000a900473ffffffffffffffffffffffffffffffffffffffff1673ffffffffffffffffffffffffffffffffffffffff163373ffffffffffffffffffffffffffffffffffffffff1614151561075b57600080fd5b6005600081548092919060010191905055506003604080519081016040528083815260200160008152509080600181540180825580915050906001820390600052602060002090600202016000909192909190915060008201518160000190805190602001906107cc929190610ad0565b506020820151816001015550505050565b60068054600181600116156101000203166002900480601f0160208091040260200160405190810160405280929190818152602001828054600181600116156101000203166002900480156108735780601f1061084857610100808354040283529160200191610873565b820191906000526020600020905b81548152906001019060200180831161085657829003601f168201915b505050505081565b60018054600181600116156101000203166002900480601f0160208091040260200160405190810160405280929190818152602001828054600181600116156101000203166002900480156109115780601f106108e657610100808354040283529160200191610911565b820191906000526020600020905b8154815290600101906020018083116108f457829003601f168201915b505050505081565b6000809054906101000a900473ffffffffffffffffffffffffffffffffffffffff1681565b60026020528060005260406000206000915090508060000160009054906101000a900460ff16908060000160019054906101000a900460ff16908060010154905083565b6000809054906101000a900473ffffffffffffffffffffffffffffffffffffffff1673ffffffffffffffffffffffffffffffffffffffff163373ffffffffffffffffffffffffffffffffffffffff161415156109dd57600080fd5b6001600260008373ffffffffffffffffffffffffffffffffffffffff1673ffffffffffffffffffffffffffffffffffffffff16815260200190815260200160002060000160006101000a81548160ff02191690831515021790555050565b6000809054906101000a900473ffffffffffffffffffffffffffffffffffffffff1673ffffffffffffffffffffffffffffffffffffffff163373ffffffffffffffffffffffffffffffffffffffff16141515610a9657600080fd5b6000809054906101000a900473ffffffffffffffffffffffffffffffffffffffff1673ffffffffffffffffffffffffffffffffffffffff16ff5b828054600181600116156101000203166002900490600052602060002090601f016020900481019282601f10610b1157805160ff1916838001178555610b3f565b82800160010185558215610b3f579182015b82811115610b3e578251825591602001919060010190610b23565b5b509050610b4c9190610b50565b5090565b610b7291905b80821115610b6e576000816000905550600101610b56565b5090565b905600a165627a7a723058204b73b41fd3981dcec492bd103a07927ed03c3162295fcb1f06feec8a66ea27ed0029",
  "source": "pragma solidity ^0.4.21;\r\ncontract Election {\r\n    \r\n    struct Candidate {\r\n        string candidateName;\r\n        uint voteCount;\r\n\r\n    }\r\n\r\n    struct Voter {\r\n        bool authorized;                                //check if voter/user is authorized\r\n        bool voted;                                     //check if voter/user has voted\r\n        uint vote;                                      //checks who voters voted for\r\n    }\r\n\r\n    address public owner;                               //owner of the contract\r\n    string public electionName;             \r\n\r\n    mapping(address => Voter) public voters;            //keeps track of voters\r\n    //mapping(uint => Candidate) public candidates;       //stores/keeps track candidates\r\n    Candidate[] public candidates;                      //array of candidates to be voted for\r\n    uint public totalVotes;                             //Stores total votes\r\n    uint public candidatesCount;                        //Stores candidates count\r\n\r\n    modifier ownerOnly() {                              //modifier to allow owner only functionalities (used in functions)\r\n        require(msg.sender == owner);\r\n        _;                                              //executes everything in the function if requirement (is owner) is met;         \r\n    }\r\n\r\n    //delete later\r\n    string public candidate;\r\n    constructor() public {\r\n        candidate = \"Candidate 1\";\r\n    }\r\n    /*\r\n    //smart contract constructor\r\n    constructor(string _name) public {\r\n        owner = msg.sender;                             //the (address) owner of the contract (whoever deployed the contract) also owns the Election\r\n        electionName = _name;\r\n    }\r\n    */\r\n    //add candidate function\r\n    function addCandidate(string _name) ownerOnly public {\r\n        candidatesCount ++;\r\n        candidates.push(Candidate(_name, 0));\r\n    }\r\n\r\n    function authorize(address _user) ownerOnly public {\r\n        voters[_user].authorized = true;\r\n    }\r\n\r\n    function vote(uint _candidateID) public {\r\n        require(!voters[msg.sender].voted);             // requires user to have not voted yet\r\n        require(voters[msg.sender].authorized);\r\n\r\n        voters[msg.sender].vote = _candidateID;\r\n        voters[msg.sender].voted = true;                 //marks the voter as already having voted\r\n\r\n        candidates[_candidateID].voteCount ++;\r\n        totalVotes ++;\r\n    }\r\n\r\n    function end() ownerOnly public{\r\n        selfdestruct(owner);\r\n    }\r\n    \r\n\r\n\r\n}",
  "sourcePath": "C:\\Users\\rentu\\Documents\\Github\\BlockLocale\\contracts\\Election.sol",
  "compiler": {
    "name": "solc",
    "version": "0.4.26+commit.4563c3fc.Emscripten.clang"
  },
  "schemaVersion": "3.4.7",
  "updatedAt": "2022-05-09T09:25:29.298Z",
  "networkType": "ethereum",
  "devdoc": {
    "methods": {}
  },
  "userdoc": {
    "methods": {}
  }
}