{
  "contractName": "Election",
  "abi": [
    {
      "constant": true,
      "inputs": [],
      "name": "totalVotes",
      "outputs": [
        {
          "name": "",
          "type": "uint256"
        }
      ],
      "payable": false,
      "stateMutability": "view",
      "type": "function"
    },
    {
      "constant": true,
      "inputs": [
        {
          "name": "",
          "type": "uint256"
        }
      ],
      "name": "candidatesMap",
      "outputs": [
        {
          "name": "candidateID",
          "type": "uint256"
        },
        {
          "name": "candidateName",
          "type": "string"
        },
        {
          "name": "voteCount",
          "type": "uint256"
        }
      ],
      "payable": false,
      "stateMutability": "view",
      "type": "function"
    },
    {
      "constant": true,
      "inputs": [],
      "name": "candidatesCount",
      "outputs": [
        {
          "name": "",
          "type": "uint256"
        }
      ],
      "payable": false,
      "stateMutability": "view",
      "type": "function"
    },
    {
      "constant": true,
      "inputs": [
        {
          "name": "",
          "type": "uint256"
        }
      ],
      "name": "candidates",
      "outputs": [
        {
          "name": "candidateID",
          "type": "uint256"
        },
        {
          "name": "candidateName",
          "type": "string"
        },
        {
          "name": "voteCount",
          "type": "uint256"
        }
      ],
      "payable": false,
      "stateMutability": "view",
      "type": "function"
    },
    {
      "constant": true,
      "inputs": [],
      "name": "electionName",
      "outputs": [
        {
          "name": "",
          "type": "string"
        }
      ],
      "payable": false,
      "stateMutability": "view",
      "type": "function"
    },
    {
      "constant": true,
      "inputs": [],
      "name": "owner",
      "outputs": [
        {
          "name": "",
          "type": "address"
        }
      ],
      "payable": false,
      "stateMutability": "view",
      "type": "function"
    },
    {
      "constant": true,
      "inputs": [
        {
          "name": "",
          "type": "address"
        }
      ],
      "name": "voters",
      "outputs": [
        {
          "name": "authorized",
          "type": "bool"
        },
        {
          "name": "voted",
          "type": "bool"
        },
        {
          "name": "vote",
          "type": "uint256"
        }
      ],
      "payable": false,
      "stateMutability": "view",
      "type": "function"
    },
    {
      "inputs": [],
      "payable": false,
      "stateMutability": "nonpayable",
      "type": "constructor"
    },
    {
      "constant": false,
      "inputs": [
        {
          "name": "_name",
          "type": "string"
        }
      ],
      "name": "addCandidate",
      "outputs": [],
      "payable": false,
      "stateMutability": "nonpayable",
      "type": "function"
    },
    {
      "constant": false,
      "inputs": [
        {
          "name": "_user",
          "type": "address"
        }
      ],
      "name": "authorize",
      "outputs": [],
      "payable": false,
      "stateMutability": "nonpayable",
      "type": "function"
    },
    {
      "constant": false,
      "inputs": [
        {
          "name": "_candidateID",
          "type": "uint256"
        }
      ],
      "name": "vote",
      "outputs": [],
      "payable": false,
      "stateMutability": "nonpayable",
      "type": "function"
    },
    {
      "constant": false,
      "inputs": [],
      "name": "end",
      "outputs": [],
      "payable": false,
      "stateMutability": "nonpayable",
      "type": "function"
    }
  ],
  "bytecode": "0x608060405234801561001057600080fd5b5061005e6040805190810160405280600b81526020017f43616e64696461746520310000000000000000000000000000000000000000008152506100b0640100000000026401000000009004565b6100ab6040805190810160405280600b81526020017f43616e64696461746520320000000000000000000000000000000000000000008152506100b0640100000000026401000000009004565b610252565b600660008154809291906001019190505550600460606040519081016040528060065481526020018381526020016000815250908060018154018082558091505090600182039060005260206000209060030201600090919290919091506000820151816000015560208201518160010190805190602001906101349291906101ad565b50604082015181600201555050506060604051908101604052806006548152602001828152602001600081525060036000600654815260200190815260200160002060008201518160000155602082015181600101908051906020019061019c9291906101ad565b506040820151816002015590505050565b828054600181600116156101000203166002900490600052602060002090601f016020900481019282601f106101ee57805160ff191683800117855561021c565b8280016001018555821561021c579182015b8281111561021b578251825591602001919060010190610200565b5b509050610229919061022d565b5090565b61024f91905b8082111561024b576000816000905550600101610233565b5090565b90565b610c0c80620002626000396000f3006080604052600436106100af576000357c0100000000000000000000000000000000000000000000000000000000900463ffffffff1680630121b93f146100b45780630d15fd77146100e1578063101ed4e11461010c5780632d35a8a2146101c05780633477ee2e146101eb578063462e91ec1461029f57806385e8e7a7146103085780638da5cb5b14610398578063a3ec138d146103ef578063b6a5d7de1461045c578063efbe1c1c1461049f575b600080fd5b3480156100c057600080fd5b506100df600480360381019080803590602001909291905050506104b6565b005b3480156100ed57600080fd5b506100f661064a565b6040518082815260200191505060405180910390f35b34801561011857600080fd5b5061013760048036038101908080359060200190929190505050610650565b6040518084815260200180602001838152602001828103825284818151815260200191508051906020019080838360005b83811015610183578082015181840152602081019050610168565b50505050905090810190601f1680156101b05780820380516001836020036101000a031916815260200191505b5094505050505060405180910390f35b3480156101cc57600080fd5b506101d5610712565b6040518082815260200191505060405180910390f35b3480156101f757600080fd5b5061021660048036038101908080359060200190929190505050610718565b6040518084815260200180602001838152602001828103825284818151815260200191508051906020019080838360005b83811015610262578082015181840152602081019050610247565b50505050905090810190601f16801561028f5780820380516001836020036101000a031916815260200191505b5094505050505060405180910390f35b3480156102ab57600080fd5b50610306600480360381019080803590602001908201803590602001908080601f01602080910402602001604051908101604052809392919081815260200183838082843782019150505050505091929192905050506107e9565b005b34801561031457600080fd5b5061031d6108e6565b6040518080602001828103825283818151815260200191508051906020019080838360005b8381101561035d578082015181840152602081019050610342565b50505050905090810190601f16801561038a5780820380516001836020036101000a031916815260200191505b509250505060405180910390f35b3480156103a457600080fd5b506103ad610984565b604051808273ffffffffffffffffffffffffffffffffffffffff1673ffffffffffffffffffffffffffffffffffffffff16815260200191505060405180910390f35b3480156103fb57600080fd5b50610430600480360381019080803573ffffffffffffffffffffffffffffffffffffffff1690602001909291905050506109a9565b604051808415151515815260200183151515158152602001828152602001935050505060405180910390f35b34801561046857600080fd5b5061049d600480360381019080803573ffffffffffffffffffffffffffffffffffffffff1690602001909291905050506109ed565b005b3480156104ab57600080fd5b506104b4610aa6565b005b600260003373ffffffffffffffffffffffffffffffffffffffff1673ffffffffffffffffffffffffffffffffffffffff16815260200190815260200160002060000160019054906101000a900460ff1615151561051257600080fd5b600260003373ffffffffffffffffffffffffffffffffffffffff1673ffffffffffffffffffffffffffffffffffffffff16815260200190815260200160002060000160009054906101000a900460ff16151561056d57600080fd5b80600260003373ffffffffffffffffffffffffffffffffffffffff1673ffffffffffffffffffffffffffffffffffffffff168152602001908152602001600020600101819055506001600260003373ffffffffffffffffffffffffffffffffffffffff1673ffffffffffffffffffffffffffffffffffffffff16815260200190815260200160002060000160016101000a81548160ff021916908315150217905550600360008281526020019081526020016000206002016000815480929190600101919050555060056000815480929190600101919050555050565b60055481565b6003602052806000526040600020600091509050806000015490806001018054600181600116156101000203166002900480601f0160208091040260200160405190810160405280929190818152602001828054600181600116156101000203166002900480156107025780601f106106d757610100808354040283529160200191610702565b820191906000526020600020905b8154815290600101906020018083116106e557829003601f168201915b5050505050908060020154905083565b60065481565b60048181548110151561072757fe5b9060005260206000209060030201600091509050806000015490806001018054600181600116156101000203166002900480601f0160208091040260200160405190810160405280929190818152602001828054600181600116156101000203166002900480156107d95780601f106107ae576101008083540402835291602001916107d9565b820191906000526020600020905b8154815290600101906020018083116107bc57829003601f168201915b5050505050908060020154905083565b6006600081548092919060010191905055506004606060405190810160405280600654815260200183815260200160008152509080600181540180825580915050906001820390600052602060002090600302016000909192909190915060008201518160000155602082015181600101908051906020019061086d929190610b3b565b5060408201518160020155505050606060405190810160405280600654815260200182815260200160008152506003600060065481526020019081526020016000206000820151816000015560208201518160010190805190602001906108d5929190610b3b565b506040820151816002015590505050565b60018054600181600116156101000203166002900480601f01602080910402602001604051908101604052809291908181526020018280546001816001161561010002031660029004801561097c5780601f106109515761010080835404028352916020019161097c565b820191906000526020600020905b81548152906001019060200180831161095f57829003601f168201915b505050505081565b6000809054906101000a900473ffffffffffffffffffffffffffffffffffffffff1681565b60026020528060005260406000206000915090508060000160009054906101000a900460ff16908060000160019054906101000a900460ff16908060010154905083565b6000809054906101000a900473ffffffffffffffffffffffffffffffffffffffff1673ffffffffffffffffffffffffffffffffffffffff163373ffffffffffffffffffffffffffffffffffffffff16141515610a4857600080fd5b6001600260008373ffffffffffffffffffffffffffffffffffffffff1673ffffffffffffffffffffffffffffffffffffffff16815260200190815260200160002060000160006101000a81548160ff02191690831515021790555050565b6000809054906101000a900473ffffffffffffffffffffffffffffffffffffffff1673ffffffffffffffffffffffffffffffffffffffff163373ffffffffffffffffffffffffffffffffffffffff16141515610b0157600080fd5b6000809054906101000a900473ffffffffffffffffffffffffffffffffffffffff1673ffffffffffffffffffffffffffffffffffffffff16ff5b828054600181600116156101000203166002900490600052602060002090601f016020900481019282601f10610b7c57805160ff1916838001178555610baa565b82800160010185558215610baa579182015b82811115610ba9578251825591602001919060010190610b8e565b5b509050610bb79190610bbb565b5090565b610bdd91905b80821115610bd9576000816000905550600101610bc1565b5090565b905600a165627a7a72305820e7b23558150a7d70a3eec31593ad85e120159cb7739dbc2818de5743884051d50029",
  "source": "pragma solidity ^0.4.21;\r\ncontract Election {\r\n    \r\n    struct Candidate {\r\n        uint candidateID;\r\n        string candidateName;\r\n        uint voteCount;\r\n    }\r\n\r\n    struct Voter {\r\n        bool authorized;                                //check if voter/user is authorized\r\n        bool voted;                                     //check if voter/user has voted\r\n        uint vote;                                      //checks who voters voted for\r\n    }\r\n\r\n    address public owner;                               //owner of the contract\r\n    string public electionName;             \r\n\r\n    mapping(address => Voter) public voters;            //keeps track of voters\r\n    mapping(uint => Candidate) public candidatesMap;       //stores/keeps track candidates\r\n    Candidate[] public candidates;                      //array of candidates to be voted for\r\n    uint public totalVotes;                             //Stores total votes\r\n    uint public candidatesCount;                        //Stores candidates count\r\n\r\n    modifier ownerOnly() {                              //modifier to allow owner only functionalities (used in functions)\r\n        require(msg.sender == owner);\r\n        _;                                              //executes everything in the function if requirement (is owner) is met;         \r\n    }\r\n\r\n    //Temporary constructor\r\n    constructor() public {\r\n        \r\n        addCandidate(\"Candidate 1\");\r\n        addCandidate(\"Candidate 2\");\r\n    }\r\n    /* Will use this instead of above constructor \r\n    //smart contract constructor\r\n    constructor(string _name) public {\r\n        owner = msg.sender;                             //the (address) owner of the contract (whoever deployed the contract) also owns the Election\r\n        electionName = _name;\r\n    }\r\n    */\r\n    //temporary addCandidate function\r\n    function addCandidate(string _name) public {\r\n        candidatesCount ++;\r\n        candidates.push(Candidate(candidatesCount,_name, 0));\r\n        candidatesMap[candidatesCount] = Candidate(candidatesCount,_name, 0);           //Update later\r\n    }\r\n    /*\r\n    //add candidate function\r\n    function addCandidate(string _name) ownerOnly public {\r\n        candidatesCount ++;\r\n        candidates.push(Candidate(candidatesCount,_name, 0));\r\n        candidatesMap[candidatesCount] = Candidate(candidatesCount,_name, 0);           //Update later\r\n    }\r\n    */\r\n    function authorize(address _user) ownerOnly public {\r\n        voters[_user].authorized = true;\r\n    }\r\n\r\n    function vote(uint _candidateID) public {\r\n        require(!voters[msg.sender].voted);             // requires user to have not voted yet\r\n        require(voters[msg.sender].authorized);\r\n\r\n        voters[msg.sender].vote = _candidateID;\r\n        voters[msg.sender].voted = true;                 //marks the voter as already having voted\r\n\r\n        candidatesMap[_candidateID].voteCount ++;\r\n        totalVotes ++;\r\n    }\r\n\r\n    function end() ownerOnly public{\r\n        selfdestruct(owner);\r\n    }\r\n    \r\n\r\n\r\n}",
  "sourcePath": "C:\\Users\\rentu\\Documents\\Github\\BlockLocale\\contracts\\Election.sol",
  "compiler": {
    "name": "solc",
    "version": "0.4.26+commit.4563c3fc.Emscripten.clang"
  },
  "schemaVersion": "3.4.7",
  "updatedAt": "2022-05-11T14:47:53.907Z",
  "networkType": "ethereum",
  "devdoc": {
    "methods": {}
  },
  "userdoc": {
    "methods": {}
  }
}