{
  "contractName": "Election",
  "abi": [
    {
      "inputs": [],
      "stateMutability": "nonpayable",
      "type": "constructor"
    },
    {
      "inputs": [
        {
          "internalType": "uint256",
          "name": "",
          "type": "uint256"
        }
      ],
      "name": "candidates",
      "outputs": [
        {
          "internalType": "uint256",
          "name": "candidateID",
          "type": "uint256"
        },
        {
          "internalType": "string",
          "name": "candidateName",
          "type": "string"
        },
        {
          "internalType": "uint256",
          "name": "voteCount",
          "type": "uint256"
        }
      ],
      "stateMutability": "view",
      "type": "function",
      "constant": true
    },
    {
      "inputs": [],
      "name": "candidatesCount",
      "outputs": [
        {
          "internalType": "uint256",
          "name": "",
          "type": "uint256"
        }
      ],
      "stateMutability": "view",
      "type": "function",
      "constant": true
    },
    {
      "inputs": [
        {
          "internalType": "uint256",
          "name": "",
          "type": "uint256"
        }
      ],
      "name": "candidatesMap",
      "outputs": [
        {
          "internalType": "uint256",
          "name": "candidateID",
          "type": "uint256"
        },
        {
          "internalType": "string",
          "name": "candidateName",
          "type": "string"
        },
        {
          "internalType": "uint256",
          "name": "voteCount",
          "type": "uint256"
        }
      ],
      "stateMutability": "view",
      "type": "function",
      "constant": true
    },
    {
      "inputs": [],
      "name": "electionName",
      "outputs": [
        {
          "internalType": "string",
          "name": "",
          "type": "string"
        }
      ],
      "stateMutability": "view",
      "type": "function",
      "constant": true
    },
    {
      "inputs": [],
      "name": "owner",
      "outputs": [
        {
          "internalType": "address",
          "name": "",
          "type": "address"
        }
      ],
      "stateMutability": "view",
      "type": "function",
      "constant": true
    },
    {
      "inputs": [],
      "name": "totalVotes",
      "outputs": [
        {
          "internalType": "uint256",
          "name": "",
          "type": "uint256"
        }
      ],
      "stateMutability": "view",
      "type": "function",
      "constant": true
    },
    {
      "inputs": [
        {
          "internalType": "address",
          "name": "",
          "type": "address"
        }
      ],
      "name": "voters",
      "outputs": [
        {
          "internalType": "bool",
          "name": "authorized",
          "type": "bool"
        },
        {
          "internalType": "bool",
          "name": "voted",
          "type": "bool"
        },
        {
          "internalType": "uint256",
          "name": "vote",
          "type": "uint256"
        }
      ],
      "stateMutability": "view",
      "type": "function",
      "constant": true
    },
    {
      "inputs": [
        {
          "internalType": "string",
          "name": "_name",
          "type": "string"
        }
      ],
      "name": "addCandidate",
      "outputs": [],
      "stateMutability": "nonpayable",
      "type": "function"
    },
    {
      "inputs": [
        {
          "internalType": "address",
          "name": "_user",
          "type": "address"
        }
      ],
      "name": "authorize",
      "outputs": [],
      "stateMutability": "nonpayable",
      "type": "function"
    },
    {
      "inputs": [
        {
          "internalType": "uint256",
          "name": "_candidateID",
          "type": "uint256"
        }
      ],
      "name": "vote",
      "outputs": [],
      "stateMutability": "nonpayable",
      "type": "function"
    }
  ],
  "bytecode": "0x60806040523480156200001157600080fd5b50620000586040518060400160405280600b81526020017f43616e6469646174652031000000000000000000000000000000000000000000815250620000a460201b60201c565b6200009e6040518060400160405280600b81526020017f43616e6469646174652032000000000000000000000000000000000000000000815250620000a460201b60201c565b62000577565b60066000815480929190620000b990620001d3565b91905055506004604051806060016040528060065481526020018381526020016000815250908060018154018082558091505060019003906000526020600020906003020160009091909190915060008201518160000155602082015181600101908162000128919062000490565b5060408201518160020155505060405180606001604052806006548152602001828152602001600081525060036000600654815260200190815260200160002060008201518160000155602082015181600101908162000189919062000490565b506040820151816002015590505050565b7f4e487b7100000000000000000000000000000000000000000000000000000000600052601160045260246000fd5b6000819050919050565b6000620001e082620001c9565b91507fffffffffffffffffffffffffffffffffffffffffffffffffffffffffffffffff82036200021557620002146200019a565b5b600182019050919050565b600081519050919050565b7f4e487b7100000000000000000000000000000000000000000000000000000000600052604160045260246000fd5b7f4e487b7100000000000000000000000000000000000000000000000000000000600052602260045260246000fd5b60006002820490506001821680620002a257607f821691505b602082108103620002b857620002b76200025a565b5b50919050565b60008190508160005260206000209050919050565b60006020601f8301049050919050565b600082821b905092915050565b600060088302620003227fffffffffffffffffffffffffffffffffffffffffffffffffffffffffffffffff82620002e3565b6200032e8683620002e3565b95508019841693508086168417925050509392505050565b6000819050919050565b6000620003716200036b6200036584620001c9565b62000346565b620001c9565b9050919050565b6000819050919050565b6200038d8362000350565b620003a56200039c8262000378565b848454620002f0565b825550505050565b600090565b620003bc620003ad565b620003c981848462000382565b505050565b5b81811015620003f157620003e5600082620003b2565b600181019050620003cf565b5050565b601f82111562000440576200040a81620002be565b6200041584620002d3565b8101602085101562000425578190505b6200043d6200043485620002d3565b830182620003ce565b50505b505050565b600082821c905092915050565b6000620004656000198460080262000445565b1980831691505092915050565b600062000480838362000452565b9150826002028217905092915050565b6200049b8262000220565b67ffffffffffffffff811115620004b757620004b66200022b565b5b620004c3825462000289565b620004d0828285620003f5565b600060209050601f831160018114620005085760008415620004f3578287015190505b620004ff858262000472565b8655506200056f565b601f1984166200051886620002be565b60005b8281101562000542578489015182556001820191506020850194506020810190506200051b565b868310156200056257848901516200055e601f89168262000452565b8355505b6001600288020188555050505b505050505050565b610f5e80620005876000396000f3fe608060405234801561001057600080fd5b506004361061009e5760003560e01c8063462e91ec11610066578063462e91ec1461015f57806385e8e7a71461017b5780638da5cb5b14610199578063a3ec138d146101b7578063b6a5d7de146101e95761009e565b80630121b93f146100a35780630d15fd77146100bf578063101ed4e1146100dd5780632d35a8a21461010f5780633477ee2e1461012d575b600080fd5b6100bd60048036038101906100b89190610807565b610205565b005b6100c76103a1565b6040516100d49190610843565b60405180910390f35b6100f760048036038101906100f29190610807565b6103a7565b604051610106939291906108ee565b60405180910390f35b610117610459565b6040516101249190610843565b60405180910390f35b61014760048036038101906101429190610807565b61045f565b604051610156939291906108ee565b60405180910390f35b61017960048036038101906101749190610a61565b610521565b005b610183610611565b6040516101909190610aaa565b60405180910390f35b6101a161069f565b6040516101ae9190610b0d565b60405180910390f35b6101d160048036038101906101cc9190610b54565b6106c3565b6040516101e093929190610b9c565b60405180910390f35b61020360048036038101906101fe9190610b54565b610707565b005b600260003373ffffffffffffffffffffffffffffffffffffffff1673ffffffffffffffffffffffffffffffffffffffff16815260200190815260200160002060000160019054906101000a900460ff161561025f57600080fd5b600260003373ffffffffffffffffffffffffffffffffffffffff1673ffffffffffffffffffffffffffffffffffffffff16815260200190815260200160002060000160009054906101000a900460ff166102b857600080fd5b80600260003373ffffffffffffffffffffffffffffffffffffffff1673ffffffffffffffffffffffffffffffffffffffff168152602001908152602001600020600101819055506001600260003373ffffffffffffffffffffffffffffffffffffffff1673ffffffffffffffffffffffffffffffffffffffff16815260200190815260200160002060000160016101000a81548160ff02191690831515021790555060036000828152602001908152602001600020600201600081548092919061038190610c02565b91905055506005600081548092919061039990610c02565b919050555050565b60055481565b60036020528060005260406000206000915090508060000154908060010180546103d090610c79565b80601f01602080910402602001604051908101604052809291908181526020018280546103fc90610c79565b80156104495780601f1061041e57610100808354040283529160200191610449565b820191906000526020600020905b81548152906001019060200180831161042c57829003601f168201915b5050505050908060020154905083565b60065481565b6004818154811061046f57600080fd5b906000526020600020906003020160009150905080600001549080600101805461049890610c79565b80601f01602080910402602001604051908101604052809291908181526020018280546104c490610c79565b80156105115780601f106104e657610100808354040283529160200191610511565b820191906000526020600020905b8154815290600101906020018083116104f457829003601f168201915b5050505050908060020154905083565b6006600081548092919061053490610c02565b9190505550600460405180606001604052806006548152602001838152602001600081525090806001815401808255809150506001900390600052602060002090600302016000909190919091506000820151816000015560208201518160010190816105a19190610e56565b506040820151816002015550506040518060600160405280600654815260200182815260200160008152506003600060065481526020019081526020016000206000820151816000015560208201518160010190816106009190610e56565b506040820151816002015590505050565b6001805461061e90610c79565b80601f016020809104026020016040519081016040528092919081815260200182805461064a90610c79565b80156106975780601f1061066c57610100808354040283529160200191610697565b820191906000526020600020905b81548152906001019060200180831161067a57829003601f168201915b505050505081565b60008054906101000a900473ffffffffffffffffffffffffffffffffffffffff1681565b60026020528060005260406000206000915090508060000160009054906101000a900460ff16908060000160019054906101000a900460ff16908060010154905083565b60008054906101000a900473ffffffffffffffffffffffffffffffffffffffff1673ffffffffffffffffffffffffffffffffffffffff163373ffffffffffffffffffffffffffffffffffffffff161461075f57600080fd5b6001600260008373ffffffffffffffffffffffffffffffffffffffff1673ffffffffffffffffffffffffffffffffffffffff16815260200190815260200160002060000160006101000a81548160ff02191690831515021790555050565b6000604051905090565b600080fd5b600080fd5b6000819050919050565b6107e4816107d1565b81146107ef57600080fd5b50565b600081359050610801816107db565b92915050565b60006020828403121561081d5761081c6107c7565b5b600061082b848285016107f2565b91505092915050565b61083d816107d1565b82525050565b60006020820190506108586000830184610834565b92915050565b600081519050919050565b600082825260208201905092915050565b60005b8381101561089857808201518184015260208101905061087d565b60008484015250505050565b6000601f19601f8301169050919050565b60006108c08261085e565b6108ca8185610869565b93506108da81856020860161087a565b6108e3816108a4565b840191505092915050565b60006060820190506109036000830186610834565b818103602083015261091581856108b5565b90506109246040830184610834565b949350505050565b600080fd5b600080fd5b7f4e487b7100000000000000000000000000000000000000000000000000000000600052604160045260246000fd5b61096e826108a4565b810181811067ffffffffffffffff8211171561098d5761098c610936565b5b80604052505050565b60006109a06107bd565b90506109ac8282610965565b919050565b600067ffffffffffffffff8211156109cc576109cb610936565b5b6109d5826108a4565b9050602081019050919050565b82818337600083830152505050565b6000610a046109ff846109b1565b610996565b905082815260208101848484011115610a2057610a1f610931565b5b610a2b8482856109e2565b509392505050565b600082601f830112610a4857610a4761092c565b5b8135610a588482602086016109f1565b91505092915050565b600060208284031215610a7757610a766107c7565b5b600082013567ffffffffffffffff811115610a9557610a946107cc565b5b610aa184828501610a33565b91505092915050565b60006020820190508181036000830152610ac481846108b5565b905092915050565b600073ffffffffffffffffffffffffffffffffffffffff82169050919050565b6000610af782610acc565b9050919050565b610b0781610aec565b82525050565b6000602082019050610b226000830184610afe565b92915050565b610b3181610aec565b8114610b3c57600080fd5b50565b600081359050610b4e81610b28565b92915050565b600060208284031215610b6a57610b696107c7565b5b6000610b7884828501610b3f565b91505092915050565b60008115159050919050565b610b9681610b81565b82525050565b6000606082019050610bb16000830186610b8d565b610bbe6020830185610b8d565b610bcb6040830184610834565b949350505050565b7f4e487b7100000000000000000000000000000000000000000000000000000000600052601160045260246000fd5b6000610c0d826107d1565b91507fffffffffffffffffffffffffffffffffffffffffffffffffffffffffffffffff8203610c3f57610c3e610bd3565b5b600182019050919050565b7f4e487b7100000000000000000000000000000000000000000000000000000000600052602260045260246000fd5b60006002820490506001821680610c9157607f821691505b602082108103610ca457610ca3610c4a565b5b50919050565b60008190508160005260206000209050919050565b60006020601f8301049050919050565b600082821b905092915050565b600060088302610d0c7fffffffffffffffffffffffffffffffffffffffffffffffffffffffffffffffff82610ccf565b610d168683610ccf565b95508019841693508086168417925050509392505050565b6000819050919050565b6000610d53610d4e610d49846107d1565b610d2e565b6107d1565b9050919050565b6000819050919050565b610d6d83610d38565b610d81610d7982610d5a565b848454610cdc565b825550505050565b600090565b610d96610d89565b610da1818484610d64565b505050565b5b81811015610dc557610dba600082610d8e565b600181019050610da7565b5050565b601f821115610e0a57610ddb81610caa565b610de484610cbf565b81016020851015610df3578190505b610e07610dff85610cbf565b830182610da6565b50505b505050565b600082821c905092915050565b6000610e2d60001984600802610e0f565b1980831691505092915050565b6000610e468383610e1c565b9150826002028217905092915050565b610e5f8261085e565b67ffffffffffffffff811115610e7857610e77610936565b5b610e828254610c79565b610e8d828285610dc9565b600060209050601f831160018114610ec05760008415610eae578287015190505b610eb88582610e3a565b865550610f20565b601f198416610ece86610caa565b60005b82811015610ef657848901518255600182019150602085019450602081019050610ed1565b86831015610f135784890151610f0f601f891682610e1c565b8355505b6001600288020188555050505b50505050505056fea26469706673582212202213f95f704bc7e199f100d25da5a1f828b262197d8c7218430c3bb297583ddb64736f6c63430008110033",
  "immutableReferences": {},
  "source": "pragma solidity ^0.8.12;\r\ncontract Election {\r\n    \r\n    struct Candidate {\r\n        uint candidateID;\r\n        string candidateName;\r\n        uint voteCount;\r\n    }\r\n\r\n    struct Voter {\r\n        bool authorized;                                //check if voter/user is authorized\r\n        bool voted;                                     //check if voter/user has voted\r\n        uint vote;                                      //checks who voters voted for\r\n    }\r\n\r\n    address public owner;                               //owner of the contract\r\n    string public electionName;             \r\n\r\n    mapping(address => Voter) public voters;            //keeps track of voters\r\n    mapping(uint => Candidate) public candidatesMap;       //stores/keeps track candidates\r\n    Candidate[] public candidates;                      //array of candidates to be voted for\r\n    uint public totalVotes;                             //Stores total votes\r\n    uint public candidatesCount;                        //Stores candidates count\r\n\r\n    modifier ownerOnly() {                              //modifier to allow owner only functionalities (used in functions)\r\n        require(msg.sender == owner);\r\n        _;                                              //executes everything in the function if requirement (is owner) is met;         \r\n    }\r\n\r\n    //Temporary constructor\r\n    constructor() public {\r\n        \r\n        addCandidate(\"Candidate 1\");\r\n        addCandidate(\"Candidate 2\");\r\n    }\r\n    /* Will use this instead of above constructor \r\n    //smart contract constructor\r\n    constructor(string memory _name) public {\r\n        owner = msg.sender;                             //the (address) owner of the contract (whoever deployed the contract) also owns the Election\r\n        electionName = _name;\r\n    }\r\n    */\r\n    //temporary addCandidate function\r\n    function addCandidate(string memory _name) public {\r\n        candidatesCount ++;\r\n        candidates.push(Candidate(candidatesCount,_name, 0));\r\n        candidatesMap[candidatesCount] = Candidate(candidatesCount,_name, 0);           //Update later\r\n    }\r\n    /*\r\n    //add candidate function\r\n    function addCandidate(string memory _name) ownerOnly public {\r\n        candidatesCount ++;\r\n        candidates.push(Candidate(candidatesCount,_name, 0));\r\n        candidatesMap[candidatesCount] = Candidate(candidatesCount,_name, 0);           //Update later\r\n    }\r\n    */\r\n    //Allows owner only privileges\r\n    function authorize(address _user) ownerOnly public {\r\n        voters[_user].authorized = true;\r\n    }\r\n\r\n    function vote(uint _candidateID) public {\r\n        require(!voters[msg.sender].voted);             // requires user to have not voted yet\r\n        require(voters[msg.sender].authorized);\r\n\r\n        voters[msg.sender].vote = _candidateID;\r\n        voters[msg.sender].voted = true;                 //marks the voter as already having voted\r\n\r\n        candidatesMap[_candidateID].voteCount ++;\r\n        totalVotes ++;\r\n    }\r\n    /* Deprecated function\r\n    function end() ownerOnly public{\r\n        selfdestruct(owner);\r\n    }\r\n    */\r\n\r\n\r\n}",
  "sourcePath": "C:\\Users\\rentu\\Documents\\Github\\BlockLocale\\contracts\\Election.sol",
  "compiler": {
    "name": "solc",
    "version": "0.8.17+commit.8df45f5f.Emscripten.clang"
  },
  "schemaVersion": "3.4.7",
  "updatedAt": "2022-11-12T19:49:55.106Z",
  "networkType": "ethereum",
  "devdoc": {
    "kind": "dev",
    "methods": {},
    "version": 1
  },
  "userdoc": {
    "kind": "user",
    "methods": {},
    "version": 1
  }
}